{
  "address": "0x1eE48Bd39358A8e511C5Ba8264F1e6085Ad2AF84",
  "abi": [
    {
      "inputs": [
        {
          "internalType": "address",
          "name": "exampleExternalContractAddress",
          "type": "address"
        }
      ],
      "stateMutability": "nonpayable",
      "type": "constructor"
    },
    {
      "anonymous": false,
      "inputs": [
        {
          "indexed": false,
          "internalType": "address",
          "name": "staker",
          "type": "address"
        },
        {
          "indexed": false,
          "internalType": "uint256",
          "name": "amount",
          "type": "uint256"
        }
      ],
      "name": "Stake",
      "type": "event"
    },
    {
      "inputs": [
        {
          "internalType": "address",
          "name": "",
          "type": "address"
        }
      ],
      "name": "balances",
      "outputs": [
        {
          "internalType": "uint256",
          "name": "",
          "type": "uint256"
        }
      ],
      "stateMutability": "view",
      "type": "function"
    },
    {
      "inputs": [],
      "name": "checkForWithdraw",
      "outputs": [
        {
          "internalType": "bool",
          "name": "",
          "type": "bool"
        }
      ],
      "stateMutability": "nonpayable",
      "type": "function"
    },
    {
      "inputs": [],
      "name": "deadline",
      "outputs": [
        {
          "internalType": "uint256",
          "name": "",
          "type": "uint256"
        }
      ],
      "stateMutability": "view",
      "type": "function"
    },
    {
      "inputs": [],
      "name": "exampleExternalContract",
      "outputs": [
        {
          "internalType": "contract ExampleExternalContract",
          "name": "",
          "type": "address"
        }
      ],
      "stateMutability": "view",
      "type": "function"
    },
    {
      "inputs": [],
      "name": "execute",
      "outputs": [],
      "stateMutability": "nonpayable",
      "type": "function"
    },
    {
      "inputs": [],
      "name": "openForWithdraw",
      "outputs": [
        {
          "internalType": "bool",
          "name": "",
          "type": "bool"
        }
      ],
      "stateMutability": "view",
      "type": "function"
    },
    {
      "inputs": [],
      "name": "stake",
      "outputs": [],
      "stateMutability": "payable",
      "type": "function"
    },
    {
      "inputs": [],
      "name": "threshold",
      "outputs": [
        {
          "internalType": "uint256",
          "name": "",
          "type": "uint256"
        }
      ],
      "stateMutability": "view",
      "type": "function"
    },
    {
      "inputs": [],
      "name": "timeLeft",
      "outputs": [
        {
          "internalType": "uint256",
          "name": "",
          "type": "uint256"
        }
      ],
      "stateMutability": "view",
      "type": "function"
    },
    {
      "inputs": [],
      "name": "withdraw",
      "outputs": [],
      "stateMutability": "nonpayable",
      "type": "function"
    },
    {
      "stateMutability": "payable",
      "type": "receive"
    }
  ],
  "transactionHash": "0x4919dd134f7aa8a3d7b8d4c6d33897be8f225384a08e5a211bafa095ff4a5fd7",
  "args": [
    "0x22ADBB8C4d190eB880b27987752788A76fFc928f"
  ],
  "numDeployments": 1,
  "solcInputHash": "655688be78739841dfa4c23ecc718c91",
  "bytecode": "0x6080604052610011426203f48061006e565b6002556003805460ff1916905534801561002a57600080fd5b5060405161084738038061084783398101604081905261004991610095565b600080546001600160a01b0319166001600160a01b03929092169190911790556100c5565b8082018082111561008f57634e487b7160e01b600052601160045260246000fd5b92915050565b6000602082840312156100a757600080fd5b81516001600160a01b03811681146100be57600080fd5b9392505050565b610773806100d46000396000f3fe6080604052600436106100955760003560e01c806342cde4e81161005957806342cde4e814610131578063614619541461014d5780639876a643146101625780639f75f2271461018c578063d8635494146101c457600080fd5b80631300a6d1146100a957806327e235e3146100d157806329dcb0cf146100fe5780633a4b66f1146101145780633ccfd60b1461011c57600080fd5b366100a4576100a26101d9565b005b600080fd5b3480156100b557600080fd5b506100be6102bf565b6040519081526020015b60405180910390f35b3480156100dd57600080fd5b506100be6100ec3660046106a9565b60016020526000908152604090205481565b34801561010a57600080fd5b506100be60025481565b6100a26101d9565b34801561012857600080fd5b506100a26102e3565b34801561013d57600080fd5b506100be670de0b6b3a764000081565b34801561015957600080fd5b506100a2610460565b34801561016e57600080fd5b5060035461017c9060ff1681565b60405190151581526020016100c8565b34801561019857600080fd5b506000546101ac906001600160a01b031681565b6040516001600160a01b0390911681526020016100c8565b3480156101d057600080fd5b5061017c6105d9565b3361021e5760405162461bcd60e51b815260206004820152601060248201526f24b73b30b634b21030b2323932b9b99760811b60448201526064015b60405180910390fd5b600034116102615760405162461bcd60e51b815260206004820152601060248201526f24b73b30b634b2103830bcb6b2b73a1760811b6044820152606401610215565b33600090815260016020526040812080543492906102809084906106ef565b9091555050604080513381523460208201527febedb8b3c678666e7f36970bc8f57abf6d8fa2e828c0da91ea5b75bf68ed101a910160405180910390a1565b600060025442106102d05750600090565b426002546102de9190610708565b905090565b60008054906101000a90046001600160a01b03166001600160a01b0316639d9a7fe96040518163ffffffff1660e01b8152600401602060405180830381865afa158015610334573d6000803e3d6000fd5b505050506040513d601f19601f82011682018060405250810190610358919061071b565b1561039e5760405162461bcd60e51b815260206004820152601660248201527521b7b73a3930b1ba1034b99031b7b6b83632ba32b21760511b6044820152606401610215565b336000908152600160205260409020546103fa5760405162461bcd60e51b815260206004820152601760248201527f4e6f2062616c616e636520746f2077697468647261772e0000000000000000006044820152606401610215565b6104026105d9565b6003805460ff1916911515918217905560ff161561045e5733600081815260016020526040808220805490839055905190929183156108fc02918491818181858888f1935050505015801561045b573d6000803e3d6000fd5b50505b565b60008054906101000a90046001600160a01b03166001600160a01b0316639d9a7fe96040518163ffffffff1660e01b8152600401602060405180830381865afa1580156104b1573d6000803e3d6000fd5b505050506040513d601f19601f820116820180604052508101906104d5919061071b565b1561051b5760405162461bcd60e51b815260206004820152601660248201527521b7b73a3930b1ba1034b99031b7b6b83632ba32b21760511b6044820152606401610215565b6002544210156105615760405162461bcd60e51b81526020600482015260116024820152702232b0b23634b732903737ba1036b2ba1760791b6044820152606401610215565b670de0b6b3a7640000471061045e5760008054906101000a90046001600160a01b03166001600160a01b031663522e1177476040518263ffffffff1660e01b81526004016000604051808303818588803b1580156105be57600080fd5b505af11580156105d2573d6000803e3d6000fd5b5050505050565b33600090815260016020526040812054670de0b6b3a7640000118015610600575060025442105b8061067d575060008054906101000a90046001600160a01b03166001600160a01b0316639d9a7fe96040518163ffffffff1660e01b8152600401602060405180830381865afa158015610657573d6000803e3d6000fd5b505050506040513d601f19601f8201168201806040525081019061067b919061071b565b155b15610694576003805460ff1916600117905561069f565b6003805460ff191690555b5060035460ff1690565b6000602082840312156106bb57600080fd5b81356001600160a01b03811681146106d257600080fd5b9392505050565b634e487b7160e01b600052601160045260246000fd5b80820180821115610702576107026106d9565b92915050565b81810381811115610702576107026106d9565b60006020828403121561072d57600080fd5b815180151581146106d257600080fdfea26469706673582212205c93d5d611c66ade96e1aef19f73e7aa0fb01b6084dcaede06b6b01136b4866a64736f6c63430008140033",
  "devdoc": {
    "kind": "dev",
    "methods": {},
    "version": 1
  },
  "userdoc": {
    "kind": "user",
    "methods": {},
    "version": 1
  },
  "storageLayout": {
    "storage": [
      {
        "astId": 19,
        "contract": "contracts/Staker.sol:Staker",
        "label": "exampleExternalContract",
        "offset": 0,
        "slot": "0",
        "type": "t_contract(ExampleExternalContract)12"
      },
      {
        "astId": 23,
        "contract": "contracts/Staker.sol:Staker",
        "label": "balances",
        "offset": 0,
        "slot": "1",
        "type": "t_mapping(t_address,t_uint256)"
      },
      {
        "astId": 38,
        "contract": "contracts/Staker.sol:Staker",
        "label": "deadline",
        "offset": 0,
        "slot": "2",
        "type": "t_uint256"
      },
      {
        "astId": 41,
        "contract": "contracts/Staker.sol:Staker",
        "label": "openForWithdraw",
        "offset": 0,
        "slot": "3",
        "type": "t_bool"
      }
    ],
    "types": {
      "t_address": {
        "encoding": "inplace",
        "label": "address",
        "numberOfBytes": "20"
      },
      "t_bool": {
        "encoding": "inplace",
        "label": "bool",
        "numberOfBytes": "1"
      },
      "t_contract(ExampleExternalContract)12": {
        "encoding": "inplace",
        "label": "contract ExampleExternalContract",
        "numberOfBytes": "20"
      },
      "t_mapping(t_address,t_uint256)": {
        "encoding": "mapping",
        "key": "t_address",
        "label": "mapping(address => uint256)",
        "numberOfBytes": "32",
        "value": "t_uint256"
      },
      "t_uint256": {
        "encoding": "inplace",
        "label": "uint256",
        "numberOfBytes": "32"
      }
    }
  }
}